{
  "contractName": "Election",
  "abi": [
    {
      "inputs": [],
      "stateMutability": "nonpayable",
      "type": "constructor"
    },
    {
      "anonymous": false,
      "inputs": [
        {
          "indexed": true,
          "internalType": "address",
          "name": "owner",
          "type": "address"
        },
        {
          "indexed": true,
          "internalType": "address",
          "name": "approved",
          "type": "address"
        },
        {
          "indexed": true,
          "internalType": "uint256",
          "name": "tokenId",
          "type": "uint256"
        }
      ],
      "name": "Approval",
      "type": "event"
    },
    {
      "anonymous": false,
      "inputs": [
        {
          "indexed": true,
          "internalType": "address",
          "name": "owner",
          "type": "address"
        },
        {
          "indexed": true,
          "internalType": "address",
          "name": "operator",
          "type": "address"
        },
        {
          "indexed": false,
          "internalType": "bool",
          "name": "approved",
          "type": "bool"
        }
      ],
      "name": "ApprovalForAll",
      "type": "event"
    },
    {
      "anonymous": false,
      "inputs": [
        {
          "indexed": true,
          "internalType": "address",
          "name": "previousOwner",
          "type": "address"
        },
        {
          "indexed": true,
          "internalType": "address",
          "name": "newOwner",
          "type": "address"
        }
      ],
      "name": "OwnershipTransferred",
      "type": "event"
    },
    {
      "anonymous": false,
      "inputs": [
        {
          "indexed": true,
          "internalType": "address",
          "name": "from",
          "type": "address"
        },
        {
          "indexed": true,
          "internalType": "address",
          "name": "to",
          "type": "address"
        },
        {
          "indexed": true,
          "internalType": "uint256",
          "name": "tokenId",
          "type": "uint256"
        }
      ],
      "name": "Transfer",
      "type": "event"
    },
    {
      "inputs": [
        {
          "internalType": "address",
          "name": "to",
          "type": "address"
        },
        {
          "internalType": "uint256",
          "name": "tokenId",
          "type": "uint256"
        }
      ],
      "name": "approve",
      "outputs": [],
      "stateMutability": "nonpayable",
      "type": "function"
    },
    {
      "inputs": [
        {
          "internalType": "address",
          "name": "owner",
          "type": "address"
        }
      ],
      "name": "balanceOf",
      "outputs": [
        {
          "internalType": "uint256",
          "name": "",
          "type": "uint256"
        }
      ],
      "stateMutability": "view",
      "type": "function",
      "constant": true
    },
    {
      "inputs": [
        {
          "internalType": "uint256",
          "name": "",
          "type": "uint256"
        }
      ],
      "name": "candidates",
      "outputs": [
        {
          "internalType": "uint256",
          "name": "id",
          "type": "uint256"
        },
        {
          "internalType": "string",
          "name": "name",
          "type": "string"
        },
        {
          "internalType": "string",
          "name": "slogan",
          "type": "string"
        },
        {
          "internalType": "uint256",
          "name": "voteCount",
          "type": "uint256"
        }
      ],
      "stateMutability": "view",
      "type": "function",
      "constant": true
    },
    {
      "inputs": [],
      "name": "candidatesCount",
      "outputs": [
        {
          "internalType": "uint16",
          "name": "",
          "type": "uint16"
        }
      ],
      "stateMutability": "view",
      "type": "function",
      "constant": true
    },
    {
      "inputs": [
        {
          "internalType": "uint256",
          "name": "tokenId",
          "type": "uint256"
        }
      ],
      "name": "getApproved",
      "outputs": [
        {
          "internalType": "address",
          "name": "",
          "type": "address"
        }
      ],
      "stateMutability": "view",
      "type": "function",
      "constant": true
    },
    {
      "inputs": [
        {
          "internalType": "address",
          "name": "_address",
          "type": "address"
        }
      ],
      "name": "getTokenId",
      "outputs": [
        {
          "internalType": "uint256",
          "name": "",
          "type": "uint256"
        }
      ],
      "stateMutability": "view",
      "type": "function",
      "constant": true
    },
    {
      "inputs": [
        {
          "internalType": "address",
          "name": "owner",
          "type": "address"
        },
        {
          "internalType": "address",
          "name": "operator",
          "type": "address"
        }
      ],
      "name": "isApprovedForAll",
      "outputs": [
        {
          "internalType": "bool",
          "name": "",
          "type": "bool"
        }
      ],
      "stateMutability": "view",
      "type": "function",
      "constant": true
    },
    {
      "inputs": [
        {
          "internalType": "address",
          "name": "to",
          "type": "address"
        }
      ],
      "name": "mintVotingCard",
      "outputs": [],
      "stateMutability": "nonpayable",
      "type": "function"
    },
    {
      "inputs": [
        {
          "internalType": "address",
          "name": "",
          "type": "address"
        }
      ],
      "name": "mintedWallets",
      "outputs": [
        {
          "internalType": "uint256",
          "name": "",
          "type": "uint256"
        }
      ],
      "stateMutability": "view",
      "type": "function",
      "constant": true
    },
    {
      "inputs": [],
      "name": "name",
      "outputs": [
        {
          "internalType": "string",
          "name": "",
          "type": "string"
        }
      ],
      "stateMutability": "view",
      "type": "function",
      "constant": true
    },
    {
      "inputs": [],
      "name": "owner",
      "outputs": [
        {
          "internalType": "address",
          "name": "",
          "type": "address"
        }
      ],
      "stateMutability": "view",
      "type": "function",
      "constant": true
    },
    {
      "inputs": [
        {
          "internalType": "uint256",
          "name": "tokenId",
          "type": "uint256"
        }
      ],
      "name": "ownerOf",
      "outputs": [
        {
          "internalType": "address",
          "name": "",
          "type": "address"
        }
      ],
      "stateMutability": "view",
      "type": "function",
      "constant": true
    },
    {
      "inputs": [],
      "name": "renounceOwnership",
      "outputs": [],
      "stateMutability": "nonpayable",
      "type": "function"
    },
    {
      "inputs": [
        {
          "internalType": "address",
          "name": "from",
          "type": "address"
        },
        {
          "internalType": "address",
          "name": "to",
          "type": "address"
        },
        {
          "internalType": "uint256",
          "name": "tokenId",
          "type": "uint256"
        }
      ],
      "name": "safeTransferFrom",
      "outputs": [],
      "stateMutability": "nonpayable",
      "type": "function"
    },
    {
      "inputs": [
        {
          "internalType": "address",
          "name": "from",
          "type": "address"
        },
        {
          "internalType": "address",
          "name": "to",
          "type": "address"
        },
        {
          "internalType": "uint256",
          "name": "tokenId",
          "type": "uint256"
        },
        {
          "internalType": "bytes",
          "name": "_data",
          "type": "bytes"
        }
      ],
      "name": "safeTransferFrom",
      "outputs": [],
      "stateMutability": "nonpayable",
      "type": "function"
    },
    {
      "inputs": [
        {
          "internalType": "address",
          "name": "operator",
          "type": "address"
        },
        {
          "internalType": "bool",
          "name": "approved",
          "type": "bool"
        }
      ],
      "name": "setApprovalForAll",
      "outputs": [],
      "stateMutability": "nonpayable",
      "type": "function"
    },
    {
      "inputs": [
        {
          "internalType": "bytes4",
          "name": "interfaceId",
          "type": "bytes4"
        }
      ],
      "name": "supportsInterface",
      "outputs": [
        {
          "internalType": "bool",
          "name": "",
          "type": "bool"
        }
      ],
      "stateMutability": "view",
      "type": "function",
      "constant": true
    },
    {
      "inputs": [],
      "name": "symbol",
      "outputs": [
        {
          "internalType": "string",
          "name": "",
          "type": "string"
        }
      ],
      "stateMutability": "view",
      "type": "function",
      "constant": true
    },
    {
      "inputs": [
        {
          "internalType": "uint256",
          "name": "tokenId",
          "type": "uint256"
        }
      ],
      "name": "tokenURI",
      "outputs": [
        {
          "internalType": "string",
          "name": "",
          "type": "string"
        }
      ],
      "stateMutability": "view",
      "type": "function",
      "constant": true
    },
    {
      "inputs": [
        {
          "internalType": "address",
          "name": "from",
          "type": "address"
        },
        {
          "internalType": "address",
          "name": "to",
          "type": "address"
        },
        {
          "internalType": "uint256",
          "name": "tokenId",
          "type": "uint256"
        }
      ],
      "name": "transferFrom",
      "outputs": [],
      "stateMutability": "nonpayable",
      "type": "function"
    },
    {
      "inputs": [
        {
          "internalType": "address",
          "name": "newOwner",
          "type": "address"
        }
      ],
      "name": "transferOwnership",
      "outputs": [],
      "stateMutability": "nonpayable",
      "type": "function"
    },
    {
      "inputs": [],
      "name": "getCandidatesCount",
      "outputs": [
        {
          "internalType": "uint16",
          "name": "",
          "type": "uint16"
        }
      ],
      "stateMutability": "view",
      "type": "function",
      "constant": true
    },
    {
      "inputs": [
        {
          "internalType": "string",
          "name": "_name",
          "type": "string"
        },
        {
          "internalType": "string",
          "name": "_slogan",
          "type": "string"
        }
      ],
      "name": "addCandidate",
      "outputs": [],
      "stateMutability": "nonpayable",
      "type": "function"
    },
    {
      "inputs": [],
      "name": "toggleIsVotingOpen",
      "outputs": [],
      "stateMutability": "nonpayable",
      "type": "function"
    },
    {
      "inputs": [],
      "name": "getIsVotingOpenValue",
      "outputs": [
        {
          "internalType": "bool",
          "name": "",
          "type": "bool"
        }
      ],
      "stateMutability": "view",
      "type": "function",
      "constant": true
    },
    {
      "inputs": [],
      "name": "donate",
      "outputs": [],
      "stateMutability": "payable",
      "type": "function",
      "payable": true
    },
    {
      "inputs": [
        {
          "internalType": "uint256",
          "name": "_id",
          "type": "uint256"
        }
      ],
      "name": "voteCandidate",
      "outputs": [],
      "stateMutability": "nonpayable",
      "type": "function"
    }
  ],
  "bytecode": "0x608060405260016007553480156200001657600080fd5b506040518060400160405280600b81526020017f566f74696e6720436172640000000000000000000000000000000000000000008152506040518060400160405280600381526020017f5654430000000000000000000000000000000000000000000000000000000000815250620000a3620000976200029260201b60201c565b6200029a60201b60201c565b8160019080519060200190620000bb92919062000509565b508060029080519060200190620000d492919062000509565b50505033600860006101000a81548173ffffffffffffffffffffffffffffffffffffffff021916908373ffffffffffffffffffffffffffffffffffffffff160217905550620001946040518060400160405280600c81526020017f446f6e616c64205472756d7000000000000000000000000000000000000000008152506040518060400160405280601981526020017f4d616b6520416d657269636120477265617420416761696e21000000000000008152506200035e60201b60201c565b620002106040518060400160405280600c81526020017f42617261636b204f62616d6100000000000000000000000000000000000000008152506040518060400160405280600b81526020017f5965732057652043616e210000000000000000000000000000000000000000008152506200035e60201b60201c565b6200028c6040518060400160405280600f81526020017f48696c6c61727920436c696e746f6e00000000000000000000000000000000008152506040518060400160405280602081526020017f526561647920666f72206368616e67652c20726561647920746f206c656164218152506200035e60201b60201c565b6200070c565b600033905090565b60008060009054906101000a900473ffffffffffffffffffffffffffffffffffffffff169050816000806101000a81548173ffffffffffffffffffffffffffffffffffffffff021916908373ffffffffffffffffffffffffffffffffffffffff1602179055508173ffffffffffffffffffffffffffffffffffffffff168173ffffffffffffffffffffffffffffffffffffffff167f8be0079c531659141344cd1fd0a4f28419497f9722a3daafe3b4186f6b6457e060405160405180910390a35050565b6200036e6200029260201b60201c565b73ffffffffffffffffffffffffffffffffffffffff1662000394620004e060201b60201c565b73ffffffffffffffffffffffffffffffffffffffff1614620003ed576040517f08c379a0000000000000000000000000000000000000000000000000000000008152600401620003e4906200061a565b60405180910390fd5b600b600081819054906101000a900461ffff16809291906200040f9062000679565b91906101000a81548161ffff021916908361ffff160217905550506040518060800160405280600b60009054906101000a900461ffff1661ffff1681526020018381526020018281526020016000815250600a6000600b60009054906101000a900461ffff1661ffff168152602001908152602001600020600082015181600001556020820151816001019080519060200190620004af92919062000509565b506040820151816002019080519060200190620004ce92919062000509565b50606082015181600301559050505050565b60008060009054906101000a900473ffffffffffffffffffffffffffffffffffffffff16905090565b8280546200051790620006d7565b90600052602060002090601f0160209004810192826200053b576000855562000587565b82601f106200055657805160ff191683800117855562000587565b8280016001018555821562000587579182015b828111156200058657825182559160200191906001019062000569565b5b5090506200059691906200059a565b5090565b5b80821115620005b55760008160009055506001016200059b565b5090565b600082825260208201905092915050565b7f4f776e61626c653a2063616c6c6572206973206e6f7420746865206f776e6572600082015250565b600062000602602083620005b9565b91506200060f82620005ca565b602082019050919050565b600060208201905081810360008301526200063581620005f3565b9050919050565b7f4e487b7100000000000000000000000000000000000000000000000000000000600052601160045260246000fd5b600061ffff82169050919050565b600062000686826200066b565b915061ffff82036200069d576200069c6200063c565b5b600182019050919050565b7f4e487b7100000000000000000000000000000000000000000000000000000000600052602260045260246000fd5b60006002820490506001821680620006f057607f821691505b602082108103620007065762000705620006a8565b5b50919050565b6139ae806200071c6000396000f3fe60806040526004361061019c5760003560e01c806385d58361116100ec578063bad9b20a1161008a578063e985e9c511610064578063e985e9c5146105c7578063ed88c68e14610604578063f15376861461060e578063f2fde38b1461064b5761019c565b8063bad9b20a14610534578063bb9aa28f1461055f578063c87b56dd1461058a5761019c565b806395d89b41116100c657806395d89b411461047a578063a22cb465146104a5578063ada7c4ed146104ce578063b88d4fde1461050b5761019c565b806385d583611461040f5780638c08a4dc146104265780638da5cb5b1461044f5761019c565b806326541b561161015957806342842e0e1161013357806342842e0e146103555780636352211e1461037e57806370a08231146103bb578063715018a6146103f85761019c565b806326541b56146102c15780632d35a8a2146102ea5780633477ee2e146103155761019c565b806301ffc9a7146101a157806306fdde03146101de578063081812fc14610209578063095ea7b3146102465780630e2aba3c1461026f57806323b872dd14610298575b600080fd5b3480156101ad57600080fd5b506101c860048036038101906101c391906124d7565b610674565b6040516101d5919061251f565b60405180910390f35b3480156101ea57600080fd5b506101f3610756565b60405161020091906125d3565b60405180910390f35b34801561021557600080fd5b50610230600480360381019061022b919061262b565b6107e8565b60405161023d9190612699565b60405180910390f35b34801561025257600080fd5b5061026d600480360381019061026891906126e0565b61086d565b005b34801561027b57600080fd5b5061029660048036038101906102919190612720565b610984565b005b3480156102a457600080fd5b506102bf60048036038101906102ba919061274d565b610a73565b005b3480156102cd57600080fd5b506102e860048036038101906102e391906128d5565b610ad3565b005b3480156102f657600080fd5b506102ff610c3c565b60405161030c919061296a565b60405180910390f35b34801561032157600080fd5b5061033c6004803603810190610337919061262b565b610c50565b60405161034c9493929190612994565b60405180910390f35b34801561036157600080fd5b5061037c6004803603810190610377919061274d565b610d90565b005b34801561038a57600080fd5b506103a560048036038101906103a0919061262b565b610db0565b6040516103b29190612699565b60405180910390f35b3480156103c757600080fd5b506103e260048036038101906103dd9190612720565b610e61565b6040516103ef91906129e7565b60405180910390f35b34801561040457600080fd5b5061040d610f18565b005b34801561041b57600080fd5b50610424610fa0565b005b34801561043257600080fd5b5061044d6004803603810190610448919061262b565b611048565b005b34801561045b57600080fd5b50610464611101565b6040516104719190612699565b60405180910390f35b34801561048657600080fd5b5061048f61112a565b60405161049c91906125d3565b60405180910390f35b3480156104b157600080fd5b506104cc60048036038101906104c79190612a2e565b6111bc565b005b3480156104da57600080fd5b506104f560048036038101906104f09190612720565b6111d2565b60405161050291906129e7565b60405180910390f35b34801561051757600080fd5b50610532600480360381019061052d9190612b0f565b6111ea565b005b34801561054057600080fd5b5061054961124c565b604051610556919061251f565b60405180910390f35b34801561056b57600080fd5b50610574611263565b604051610581919061296a565b60405180910390f35b34801561059657600080fd5b506105b160048036038101906105ac919061262b565b6112f7565b6040516105be91906125d3565b60405180910390f35b3480156105d357600080fd5b506105ee60048036038101906105e99190612b92565b61139e565b6040516105fb919061251f565b60405180910390f35b61060c611432565b005b34801561061a57600080fd5b5061063560048036038101906106309190612720565b611434565b60405161064291906129e7565b60405180910390f35b34801561065757600080fd5b50610672600480360381019061066d9190612720565b61147d565b005b60007f80ac58cd000000000000000000000000000000000000000000000000000000007bffffffffffffffffffffffffffffffffffffffffffffffffffffffff1916827bffffffffffffffffffffffffffffffffffffffffffffffffffffffff1916148061073f57507f5b5e139f000000000000000000000000000000000000000000000000000000007bffffffffffffffffffffffffffffffffffffffffffffffffffffffff1916827bffffffffffffffffffffffffffffffffffffffffffffffffffffffff1916145b8061074f575061074e82611574565b5b9050919050565b60606001805461076590612c01565b80601f016020809104026020016040519081016040528092919081815260200182805461079190612c01565b80156107de5780601f106107b3576101008083540402835291602001916107de565b820191906000526020600020905b8154815290600101906020018083116107c157829003601f168201915b5050505050905090565b60006107f3826115de565b610832576040517f08c379a000000000000000000000000000000000000000000000000000000000815260040161082990612ca4565b60405180910390fd5b6005600083815260200190815260200160002060009054906101000a900473ffffffffffffffffffffffffffffffffffffffff169050919050565b600061087882610db0565b90508073ffffffffffffffffffffffffffffffffffffffff168373ffffffffffffffffffffffffffffffffffffffff16036108e8576040517f08c379a00000000000000000000000000000000000000000000000000000000081526004016108df90612d36565b60405180910390fd5b8073ffffffffffffffffffffffffffffffffffffffff1661090761164a565b73ffffffffffffffffffffffffffffffffffffffff16148061093657506109358161093061164a565b61139e565b5b610975576040517f08c379a000000000000000000000000000000000000000000000000000000000815260040161096c90612dc8565b60405180910390fd5b61097f8383611652565b505050565b6000600960008373ffffffffffffffffffffffffffffffffffffffff1673ffffffffffffffffffffffffffffffffffffffff1681526020019081526020016000205414610a06576040517f08c379a00000000000000000000000000000000000000000000000000000000081526004016109fd90612e5a565b60405180910390fd5b610a128160075461170b565b600754600960008373ffffffffffffffffffffffffffffffffffffffff1673ffffffffffffffffffffffffffffffffffffffff1681526020019081526020016000208190555060076000815480929190610a6b90612ea9565b919050555050565b610a84610a7e61164a565b826118e4565b610ac3576040517f08c379a0000000000000000000000000000000000000000000000000000000008152600401610aba90612f63565b60405180910390fd5b610ace8383836119c2565b505050565b610adb61164a565b73ffffffffffffffffffffffffffffffffffffffff16610af9611101565b73ffffffffffffffffffffffffffffffffffffffff1614610b4f576040517f08c379a0000000000000000000000000000000000000000000000000000000008152600401610b4690612fcf565b60405180910390fd5b600b600081819054906101000a900461ffff1680929190610b6f90612fef565b91906101000a81548161ffff021916908361ffff160217905550506040518060800160405280600b60009054906101000a900461ffff1661ffff1681526020018381526020018281526020016000815250600a6000600b60009054906101000a900461ffff1661ffff168152602001908152602001600020600082015181600001556020820151816001019080519060200190610c0d9291906123c8565b506040820151816002019080519060200190610c2a9291906123c8565b50606082015181600301559050505050565b600b60009054906101000a900461ffff1681565b600a602052806000526040600020600091509050806000015490806001018054610c7990612c01565b80601f0160208091040260200160405190810160405280929190818152602001828054610ca590612c01565b8015610cf25780601f10610cc757610100808354040283529160200191610cf2565b820191906000526020600020905b815481529060010190602001808311610cd557829003601f168201915b505050505090806002018054610d0790612c01565b80601f0160208091040260200160405190810160405280929190818152602001828054610d3390612c01565b8015610d805780601f10610d5557610100808354040283529160200191610d80565b820191906000526020600020905b815481529060010190602001808311610d6357829003601f168201915b5050505050908060030154905084565b610dab838383604051806020016040528060008152506111ea565b505050565b6000806003600084815260200190815260200160002060009054906101000a900473ffffffffffffffffffffffffffffffffffffffff169050600073ffffffffffffffffffffffffffffffffffffffff168173ffffffffffffffffffffffffffffffffffffffff1603610e58576040517f08c379a0000000000000000000000000000000000000000000000000000000008152600401610e4f9061308b565b60405180910390fd5b80915050919050565b60008073ffffffffffffffffffffffffffffffffffffffff168273ffffffffffffffffffffffffffffffffffffffff1603610ed1576040517f08c379a0000000000000000000000000000000000000000000000000000000008152600401610ec89061311d565b60405180910390fd5b600460008373ffffffffffffffffffffffffffffffffffffffff1673ffffffffffffffffffffffffffffffffffffffff168152602001908152602001600020549050919050565b610f2061164a565b73ffffffffffffffffffffffffffffffffffffffff16610f3e611101565b73ffffffffffffffffffffffffffffffffffffffff1614610f94576040517f08c379a0000000000000000000000000000000000000000000000000000000008152600401610f8b90612fcf565b60405180910390fd5b610f9e6000611c28565b565b610fa861164a565b73ffffffffffffffffffffffffffffffffffffffff16610fc6611101565b73ffffffffffffffffffffffffffffffffffffffff161461101c576040517f08c379a000000000000000000000000000000000000000000000000000000000815260040161101390612fcf565b60405180910390fd5b600b60029054906101000a900460ff1615600b60026101000a81548160ff021916908315150217905550565b6000600960003373ffffffffffffffffffffffffffffffffffffffff1673ffffffffffffffffffffffffffffffffffffffff16815260200190815260200160002054036110ca576040517f08c379a00000000000000000000000000000000000000000000000000000000081526004016110c190613189565b60405180910390fd5b6110d2611cec565b600a600082815260200190815260200160002060030160008154809291906110f990612ea9565b919050555050565b60008060009054906101000a900473ffffffffffffffffffffffffffffffffffffffff16905090565b60606002805461113990612c01565b80601f016020809104026020016040519081016040528092919081815260200182805461116590612c01565b80156111b25780601f10611187576101008083540402835291602001916111b2565b820191906000526020600020905b81548152906001019060200180831161119557829003601f168201915b5050505050905090565b6111ce6111c761164a565b8383611db8565b5050565b60096020528060005260406000206000915090505481565b6111fb6111f561164a565b836118e4565b61123a576040517f08c379a000000000000000000000000000000000000000000000000000000000815260040161123190612f63565b60405180910390fd5b61124684848484611f24565b50505050565b6000600b60029054906101000a900460ff16905090565b600061126d61164a565b73ffffffffffffffffffffffffffffffffffffffff1661128b611101565b73ffffffffffffffffffffffffffffffffffffffff16146112e1576040517f08c379a00000000000000000000000000000000000000000000000000000000081526004016112d890612fcf565b60405180910390fd5b600b60009054906101000a900461ffff16905090565b6060611302826115de565b611341576040517f08c379a00000000000000000000000000000000000000000000000000000000081526004016113389061321b565b60405180910390fd5b600061134b611f80565b9050600081511161136b5760405180602001604052806000815250611396565b8061137584611f97565b604051602001611386929190613277565b6040516020818303038152906040525b915050919050565b6000600660008473ffffffffffffffffffffffffffffffffffffffff1673ffffffffffffffffffffffffffffffffffffffff16815260200190815260200160002060008373ffffffffffffffffffffffffffffffffffffffff1673ffffffffffffffffffffffffffffffffffffffff16815260200190815260200160002060009054906101000a900460ff16905092915050565b565b6000600960008373ffffffffffffffffffffffffffffffffffffffff1673ffffffffffffffffffffffffffffffffffffffff168152602001908152602001600020549050919050565b61148561164a565b73ffffffffffffffffffffffffffffffffffffffff166114a3611101565b73ffffffffffffffffffffffffffffffffffffffff16146114f9576040517f08c379a00000000000000000000000000000000000000000000000000000000081526004016114f090612fcf565b60405180910390fd5b600073ffffffffffffffffffffffffffffffffffffffff168173ffffffffffffffffffffffffffffffffffffffff1603611568576040517f08c379a000000000000000000000000000000000000000000000000000000000815260040161155f9061330d565b60405180910390fd5b61157181611c28565b50565b60007f01ffc9a7000000000000000000000000000000000000000000000000000000007bffffffffffffffffffffffffffffffffffffffffffffffffffffffff1916827bffffffffffffffffffffffffffffffffffffffffffffffffffffffff1916149050919050565b60008073ffffffffffffffffffffffffffffffffffffffff166003600084815260200190815260200160002060009054906101000a900473ffffffffffffffffffffffffffffffffffffffff1673ffffffffffffffffffffffffffffffffffffffff1614159050919050565b600033905090565b816005600083815260200190815260200160002060006101000a81548173ffffffffffffffffffffffffffffffffffffffff021916908373ffffffffffffffffffffffffffffffffffffffff160217905550808273ffffffffffffffffffffffffffffffffffffffff166116c583610db0565b73ffffffffffffffffffffffffffffffffffffffff167f8c5be1e5ebec7d5bd14f71427d1e84f3dd0314c0f7b2291e5b200ac8c7c3b92560405160405180910390a45050565b600073ffffffffffffffffffffffffffffffffffffffff168273ffffffffffffffffffffffffffffffffffffffff160361177a576040517f08c379a000000000000000000000000000000000000000000000000000000000815260040161177190613379565b60405180910390fd5b611783816115de565b156117c3576040517f08c379a00000000000000000000000000000000000000000000000000000000081526004016117ba906133e5565b60405180910390fd5b6117cf600083836120f7565b6001600460008473ffffffffffffffffffffffffffffffffffffffff1673ffffffffffffffffffffffffffffffffffffffff168152602001908152602001600020600082825461181f9190613405565b92505081905550816003600083815260200190815260200160002060006101000a81548173ffffffffffffffffffffffffffffffffffffffff021916908373ffffffffffffffffffffffffffffffffffffffff160217905550808273ffffffffffffffffffffffffffffffffffffffff16600073ffffffffffffffffffffffffffffffffffffffff167fddf252ad1be2c89b69c2b068fc378daa952ba7f163c4a11628f55a4df523b3ef60405160405180910390a46118e0600083836120fc565b5050565b60006118ef826115de565b61192e576040517f08c379a0000000000000000000000000000000000000000000000000000000008152600401611925906134cd565b60405180910390fd5b600061193983610db0565b90508073ffffffffffffffffffffffffffffffffffffffff168473ffffffffffffffffffffffffffffffffffffffff16148061197b575061197a818561139e565b5b806119b957508373ffffffffffffffffffffffffffffffffffffffff166119a1846107e8565b73ffffffffffffffffffffffffffffffffffffffff16145b91505092915050565b8273ffffffffffffffffffffffffffffffffffffffff166119e282610db0565b73ffffffffffffffffffffffffffffffffffffffff1614611a38576040517f08c379a0000000000000000000000000000000000000000000000000000000008152600401611a2f9061355f565b60405180910390fd5b600073ffffffffffffffffffffffffffffffffffffffff168273ffffffffffffffffffffffffffffffffffffffff1603611aa7576040517f08c379a0000000000000000000000000000000000000000000000000000000008152600401611a9e906135f1565b60405180910390fd5b611ab28383836120f7565b611abd600082611652565b6001600460008573ffffffffffffffffffffffffffffffffffffffff1673ffffffffffffffffffffffffffffffffffffffff1681526020019081526020016000206000828254611b0d9190613611565b925050819055506001600460008473ffffffffffffffffffffffffffffffffffffffff1673ffffffffffffffffffffffffffffffffffffffff1681526020019081526020016000206000828254611b649190613405565b92505081905550816003600083815260200190815260200160002060006101000a81548173ffffffffffffffffffffffffffffffffffffffff021916908373ffffffffffffffffffffffffffffffffffffffff160217905550808273ffffffffffffffffffffffffffffffffffffffff168473ffffffffffffffffffffffffffffffffffffffff167fddf252ad1be2c89b69c2b068fc378daa952ba7f163c4a11628f55a4df523b3ef60405160405180910390a4611c238383836120fc565b505050565b60008060009054906101000a900473ffffffffffffffffffffffffffffffffffffffff169050816000806101000a81548173ffffffffffffffffffffffffffffffffffffffff021916908373ffffffffffffffffffffffffffffffffffffffff1602179055508173ffffffffffffffffffffffffffffffffffffffff168173ffffffffffffffffffffffffffffffffffffffff167f8be0079c531659141344cd1fd0a4f28419497f9722a3daafe3b4186f6b6457e060405160405180910390a35050565b6000600960003373ffffffffffffffffffffffffffffffffffffffff1673ffffffffffffffffffffffffffffffffffffffff1681526020019081526020016000205403611d6e576040517f08c379a0000000000000000000000000000000000000000000000000000000008152600401611d65906136b7565b60405180910390fd5b611db6600960003373ffffffffffffffffffffffffffffffffffffffff1673ffffffffffffffffffffffffffffffffffffffff16815260200190815260200160002054612101565b565b8173ffffffffffffffffffffffffffffffffffffffff168373ffffffffffffffffffffffffffffffffffffffff1603611e26576040517f08c379a0000000000000000000000000000000000000000000000000000000008152600401611e1d90613723565b60405180910390fd5b80600660008573ffffffffffffffffffffffffffffffffffffffff1673ffffffffffffffffffffffffffffffffffffffff16815260200190815260200160002060008473ffffffffffffffffffffffffffffffffffffffff1673ffffffffffffffffffffffffffffffffffffffff16815260200190815260200160002060006101000a81548160ff0219169083151502179055508173ffffffffffffffffffffffffffffffffffffffff168373ffffffffffffffffffffffffffffffffffffffff167f17307eab39ab6107e8899845ad3d59bd9653f200f220920489ca2b5937696c3183604051611f17919061251f565b60405180910390a3505050565b611f2f8484846119c2565b611f3b8484848461221e565b611f7a576040517f08c379a0000000000000000000000000000000000000000000000000000000008152600401611f71906137b5565b60405180910390fd5b50505050565b606060405180602001604052806000815250905090565b606060008203611fde576040518060400160405280600181526020017f300000000000000000000000000000000000000000000000000000000000000081525090506120f2565b600082905060005b60008214612010578080611ff990612ea9565b915050600a826120099190613804565b9150611fe6565b60008167ffffffffffffffff81111561202c5761202b6127aa565b5b6040519080825280601f01601f19166020018201604052801561205e5781602001600182028036833780820191505090505b5090505b600085146120eb576001826120779190613611565b9150600a856120869190613835565b60306120929190613405565b60f81b8183815181106120a8576120a7613866565b5b60200101907effffffffffffffffffffffffffffffffffffffffffffffffffffffffffffff1916908160001a905350600a856120e49190613804565b9450612062565b8093505050505b919050565b505050565b505050565b600061210c82610db0565b905061211a816000846120f7565b612125600083611652565b6001600460008373ffffffffffffffffffffffffffffffffffffffff1673ffffffffffffffffffffffffffffffffffffffff16815260200190815260200160002060008282546121759190613611565b925050819055506003600083815260200190815260200160002060006101000a81549073ffffffffffffffffffffffffffffffffffffffff021916905581600073ffffffffffffffffffffffffffffffffffffffff168273ffffffffffffffffffffffffffffffffffffffff167fddf252ad1be2c89b69c2b068fc378daa952ba7f163c4a11628f55a4df523b3ef60405160405180910390a461221a816000846120fc565b5050565b600061223f8473ffffffffffffffffffffffffffffffffffffffff166123a5565b15612398578373ffffffffffffffffffffffffffffffffffffffff1663150b7a0261226861164a565b8786866040518563ffffffff1660e01b815260040161228a94939291906138ea565b6020604051808303816000875af19250505080156122c657506040513d601f19601f820116820180604052508101906122c3919061394b565b60015b612348573d80600081146122f6576040519150601f19603f3d011682016040523d82523d6000602084013e6122fb565b606091505b506000815103612340576040517f08c379a0000000000000000000000000000000000000000000000000000000008152600401612337906137b5565b60405180910390fd5b805181602001fd5b63150b7a0260e01b7bffffffffffffffffffffffffffffffffffffffffffffffffffffffff1916817bffffffffffffffffffffffffffffffffffffffffffffffffffffffff19161491505061239d565b600190505b949350505050565b6000808273ffffffffffffffffffffffffffffffffffffffff163b119050919050565b8280546123d490612c01565b90600052602060002090601f0160209004810192826123f6576000855561243d565b82601f1061240f57805160ff191683800117855561243d565b8280016001018555821561243d579182015b8281111561243c578251825591602001919060010190612421565b5b50905061244a919061244e565b5090565b5b8082111561246757600081600090555060010161244f565b5090565b6000604051905090565b600080fd5b600080fd5b60007fffffffff0000000000000000000000000000000000000000000000000000000082169050919050565b6124b48161247f565b81146124bf57600080fd5b50565b6000813590506124d1816124ab565b92915050565b6000602082840312156124ed576124ec612475565b5b60006124fb848285016124c2565b91505092915050565b60008115159050919050565b61251981612504565b82525050565b60006020820190506125346000830184612510565b92915050565b600081519050919050565b600082825260208201905092915050565b60005b83811015612574578082015181840152602081019050612559565b83811115612583576000848401525b50505050565b6000601f19601f8301169050919050565b60006125a58261253a565b6125af8185612545565b93506125bf818560208601612556565b6125c881612589565b840191505092915050565b600060208201905081810360008301526125ed818461259a565b905092915050565b6000819050919050565b612608816125f5565b811461261357600080fd5b50565b600081359050612625816125ff565b92915050565b60006020828403121561264157612640612475565b5b600061264f84828501612616565b91505092915050565b600073ffffffffffffffffffffffffffffffffffffffff82169050919050565b600061268382612658565b9050919050565b61269381612678565b82525050565b60006020820190506126ae600083018461268a565b92915050565b6126bd81612678565b81146126c857600080fd5b50565b6000813590506126da816126b4565b92915050565b600080604083850312156126f7576126f6612475565b5b6000612705858286016126cb565b925050602061271685828601612616565b9150509250929050565b60006020828403121561273657612735612475565b5b6000612744848285016126cb565b91505092915050565b60008060006060848603121561276657612765612475565b5b6000612774868287016126cb565b9350506020612785868287016126cb565b925050604061279686828701612616565b9150509250925092565b600080fd5b600080fd5b7f4e487b7100000000000000000000000000000000000000000000000000000000600052604160045260246000fd5b6127e282612589565b810181811067ffffffffffffffff82111715612801576128006127aa565b5b80604052505050565b600061281461246b565b905061282082826127d9565b919050565b600067ffffffffffffffff8211156128405761283f6127aa565b5b61284982612589565b9050602081019050919050565b82818337600083830152505050565b600061287861287384612825565b61280a565b905082815260208101848484011115612894576128936127a5565b5b61289f848285612856565b509392505050565b600082601f8301126128bc576128bb6127a0565b5b81356128cc848260208601612865565b91505092915050565b600080604083850312156128ec576128eb612475565b5b600083013567ffffffffffffffff81111561290a5761290961247a565b5b612916858286016128a7565b925050602083013567ffffffffffffffff8111156129375761293661247a565b5b612943858286016128a7565b9150509250929050565b600061ffff82169050919050565b6129648161294d565b82525050565b600060208201905061297f600083018461295b565b92915050565b61298e816125f5565b82525050565b60006080820190506129a96000830187612985565b81810360208301526129bb818661259a565b905081810360408301526129cf818561259a565b90506129de6060830184612985565b95945050505050565b60006020820190506129fc6000830184612985565b92915050565b612a0b81612504565b8114612a1657600080fd5b50565b600081359050612a2881612a02565b92915050565b60008060408385031215612a4557612a44612475565b5b6000612a53858286016126cb565b9250506020612a6485828601612a19565b9150509250929050565b600067ffffffffffffffff821115612a8957612a886127aa565b5b612a9282612589565b9050602081019050919050565b6000612ab2612aad84612a6e565b61280a565b905082815260208101848484011115612ace57612acd6127a5565b5b612ad9848285612856565b509392505050565b600082601f830112612af657612af56127a0565b5b8135612b06848260208601612a9f565b91505092915050565b60008060008060808587031215612b2957612b28612475565b5b6000612b37878288016126cb565b9450506020612b48878288016126cb565b9350506040612b5987828801612616565b925050606085013567ffffffffffffffff811115612b7a57612b7961247a565b5b612b8687828801612ae1565b91505092959194509250565b60008060408385031215612ba957612ba8612475565b5b6000612bb7858286016126cb565b9250506020612bc8858286016126cb565b9150509250929050565b7f4e487b7100000000000000000000000000000000000000000000000000000000600052602260045260246000fd5b60006002820490506001821680612c1957607f821691505b602082108103612c2c57612c2b612bd2565b5b50919050565b7f4552433732313a20617070726f76656420717565727920666f72206e6f6e657860008201527f697374656e7420746f6b656e0000000000000000000000000000000000000000602082015250565b6000612c8e602c83612545565b9150612c9982612c32565b604082019050919050565b60006020820190508181036000830152612cbd81612c81565b9050919050565b7f4552433732313a20617070726f76616c20746f2063757272656e74206f776e6560008201527f7200000000000000000000000000000000000000000000000000000000000000602082015250565b6000612d20602183612545565b9150612d2b82612cc4565b604082019050919050565b60006020820190508181036000830152612d4f81612d13565b9050919050565b7f4552433732313a20617070726f76652063616c6c6572206973206e6f74206f7760008201527f6e6572206e6f7220617070726f76656420666f7220616c6c0000000000000000602082015250565b6000612db2603883612545565b9150612dbd82612d56565b604082019050919050565b60006020820190508181036000830152612de181612da5565b9050919050565b7f45766572792077616c6c65742063616e206d696e74206f6e6520766f74696e6760008201527f2063617264000000000000000000000000000000000000000000000000000000602082015250565b6000612e44602583612545565b9150612e4f82612de8565b604082019050919050565b60006020820190508181036000830152612e7381612e37565b9050919050565b7f4e487b7100000000000000000000000000000000000000000000000000000000600052601160045260246000fd5b6000612eb4826125f5565b91507fffffffffffffffffffffffffffffffffffffffffffffffffffffffffffffffff8203612ee657612ee5612e7a565b5b600182019050919050565b7f4552433732313a207472616e736665722063616c6c6572206973206e6f74206f60008201527f776e6572206e6f7220617070726f766564000000000000000000000000000000602082015250565b6000612f4d603183612545565b9150612f5882612ef1565b604082019050919050565b60006020820190508181036000830152612f7c81612f40565b9050919050565b7f4f776e61626c653a2063616c6c6572206973206e6f7420746865206f776e6572600082015250565b6000612fb9602083612545565b9150612fc482612f83565b602082019050919050565b60006020820190508181036000830152612fe881612fac565b9050919050565b6000612ffa8261294d565b915061ffff820361300e5761300d612e7a565b5b600182019050919050565b7f4552433732313a206f776e657220717565727920666f72206e6f6e657869737460008201527f656e7420746f6b656e0000000000000000000000000000000000000000000000602082015250565b6000613075602983612545565b915061308082613019565b604082019050919050565b600060208201905081810360008301526130a481613068565b9050919050565b7f4552433732313a2062616c616e636520717565727920666f7220746865207a6560008201527f726f206164647265737300000000000000000000000000000000000000000000602082015250565b6000613107602a83612545565b9150613112826130ab565b604082019050919050565b60006020820190508181036000830152613136816130fa565b9050919050565b7f566f74696e672063617264206973206e65636573736172792100000000000000600082015250565b6000613173601983612545565b915061317e8261313d565b602082019050919050565b600060208201905081810360008301526131a281613166565b9050919050565b7f4552433732314d657461646174613a2055524920717565727920666f72206e6f60008201527f6e6578697374656e7420746f6b656e0000000000000000000000000000000000602082015250565b6000613205602f83612545565b9150613210826131a9565b604082019050919050565b60006020820190508181036000830152613234816131f8565b9050919050565b600081905092915050565b60006132518261253a565b61325b818561323b565b935061326b818560208601612556565b80840191505092915050565b60006132838285613246565b915061328f8284613246565b91508190509392505050565b7f4f776e61626c653a206e6577206f776e657220697320746865207a65726f206160008201527f6464726573730000000000000000000000000000000000000000000000000000602082015250565b60006132f7602683612545565b91506133028261329b565b604082019050919050565b60006020820190508181036000830152613326816132ea565b9050919050565b7f4552433732313a206d696e7420746f20746865207a65726f2061646472657373600082015250565b6000613363602083612545565b915061336e8261332d565b602082019050919050565b6000602082019050818103600083015261339281613356565b9050919050565b7f4552433732313a20746f6b656e20616c7265616479206d696e74656400000000600082015250565b60006133cf601c83612545565b91506133da82613399565b602082019050919050565b600060208201905081810360008301526133fe816133c2565b9050919050565b6000613410826125f5565b915061341b836125f5565b9250827fffffffffffffffffffffffffffffffffffffffffffffffffffffffffffffffff038211156134505761344f612e7a565b5b828201905092915050565b7f4552433732313a206f70657261746f7220717565727920666f72206e6f6e657860008201527f697374656e7420746f6b656e0000000000000000000000000000000000000000602082015250565b60006134b7602c83612545565b91506134c28261345b565b604082019050919050565b600060208201905081810360008301526134e6816134aa565b9050919050565b7f4552433732313a207472616e736665722066726f6d20696e636f72726563742060008201527f6f776e6572000000000000000000000000000000000000000000000000000000602082015250565b6000613549602583612545565b9150613554826134ed565b604082019050919050565b600060208201905081810360008301526135788161353c565b9050919050565b7f4552433732313a207472616e7366657220746f20746865207a65726f2061646460008201527f7265737300000000000000000000000000000000000000000000000000000000602082015250565b60006135db602483612545565b91506135e68261357f565b604082019050919050565b6000602082019050818103600083015261360a816135ce565b9050919050565b600061361c826125f5565b9150613627836125f5565b92508282101561363a57613639612e7a565b5b828203905092915050565b7f57616c6c657420686173206e6f20766f74696e672063617264206f722069742060008201527f616c726561647920766f74656400000000000000000000000000000000000000602082015250565b60006136a1602d83612545565b91506136ac82613645565b604082019050919050565b600060208201905081810360008301526136d081613694565b9050919050565b7f4552433732313a20617070726f766520746f2063616c6c657200000000000000600082015250565b600061370d601983612545565b9150613718826136d7565b602082019050919050565b6000602082019050818103600083015261373c81613700565b9050919050565b7f4552433732313a207472616e7366657220746f206e6f6e20455243373231526560008201527f63656976657220696d706c656d656e7465720000000000000000000000000000602082015250565b600061379f603283612545565b91506137aa82613743565b604082019050919050565b600060208201905081810360008301526137ce81613792565b9050919050565b7f4e487b7100000000000000000000000000000000000000000000000000000000600052601260045260246000fd5b600061380f826125f5565b915061381a836125f5565b92508261382a576138296137d5565b5b828204905092915050565b6000613840826125f5565b915061384b836125f5565b92508261385b5761385a6137d5565b5b828206905092915050565b7f4e487b7100000000000000000000000000000000000000000000000000000000600052603260045260246000fd5b600081519050919050565b600082825260208201905092915050565b60006138bc82613895565b6138c681856138a0565b93506138d6818560208601612556565b6138df81612589565b840191505092915050565b60006080820190506138ff600083018761268a565b61390c602083018661268a565b6139196040830185612985565b818103606083015261392b81846138b1565b905095945050505050565b600081519050613945816124ab565b92915050565b60006020828403121561396157613960612475565b5b600061396f84828501613936565b9150509291505056fea26469706673582212204f8070023a66d3b6bf0d939761a2e0bbb93300431ab147f558c946f3785716cf64736f6c634300080e0033",
  "immutableReferences": {},
  "source": "// SPDX-License-Identifier: MIT\npragma solidity >=0.4.22 <=0.8.15;\n\nimport \"../node_modules/@openzeppelin/contracts/access/Ownable.sol\";\n\nimport \"./VotingCard.sol\";\n\ncontract Election is Ownable, VotingCard {\n    struct Candidate {\n        uint256 id;\n        string name;\n        string slogan;\n        uint256 voteCount;\n    }\n    mapping (uint256  => Candidate) public candidates;\n    uint16 public candidatesCount;\n    bool isVotingOpen;\n\n      constructor () {\n        addCandidate('Donald Trump', 'Make America Great Again!');\n        addCandidate('Barack Obama', 'Yes We Can!');\n        addCandidate('Hillary Clinton', 'Ready for change, ready to lead!');\n    }\n\n    function getCandidatesCount () onlyOwner public view returns (uint16) {\n        return candidatesCount;\n    }\n\n    function addCandidate(string memory _name, string memory _slogan) onlyOwner public {\n        candidatesCount++;\n        candidates[candidatesCount] = Candidate(candidatesCount, _name, _slogan, 0);\n    }\n\n    function toggleIsVotingOpen() onlyOwner public  {\n        isVotingOpen = !isVotingOpen;\n    }\n    \n    function getIsVotingOpenValue() public view returns (bool) {\n        return isVotingOpen;\n    }\n\n    function donate() public payable{\n        \n    }\n\n    function voteCandidate( uint256  _id) public {\n        require(mintedWallets[msg.sender] != 0, \"Voting card is necessary!\");\n        burnVotingCard();\n        candidates[_id].voteCount++;\n    }\n  \n}",
  "sourcePath": "/Users/ozshmuel/Desktop/Google Drive/CS/ / /blockchain/project/election/truffle/contracts/Election.sol",
  "compiler": {
    "name": "solc",
    "version": "0.8.14+commit.80d49f37.Emscripten.clang"
  },
  "schemaVersion": "3.4.7",
  "updatedAt": "2022-07-04T21:09:56.092Z",
  "networkType": "ethereum",
  "devdoc": {
    "kind": "dev",
    "methods": {
      "approve(address,uint256)": {
        "details": "See {IERC721-approve}."
      },
      "balanceOf(address)": {
        "details": "See {IERC721-balanceOf}."
      },
      "getApproved(uint256)": {
        "details": "See {IERC721-getApproved}."
      },
      "isApprovedForAll(address,address)": {
        "details": "See {IERC721-isApprovedForAll}."
      },
      "name()": {
        "details": "See {IERC721Metadata-name}."
      },
      "owner()": {
        "details": "Returns the address of the current owner."
      },
      "ownerOf(uint256)": {
        "details": "See {IERC721-ownerOf}."
      },
      "renounceOwnership()": {
        "details": "Leaves the contract without owner. It will not be possible to call `onlyOwner` functions anymore. Can only be called by the current owner. NOTE: Renouncing ownership will leave the contract without an owner, thereby removing any functionality that is only available to the owner."
      },
      "safeTransferFrom(address,address,uint256)": {
        "details": "See {IERC721-safeTransferFrom}."
      },
      "safeTransferFrom(address,address,uint256,bytes)": {
        "details": "See {IERC721-safeTransferFrom}."
      },
      "setApprovalForAll(address,bool)": {
        "details": "See {IERC721-setApprovalForAll}."
      },
      "supportsInterface(bytes4)": {
        "details": "See {IERC165-supportsInterface}."
      },
      "symbol()": {
        "details": "See {IERC721Metadata-symbol}."
      },
      "tokenURI(uint256)": {
        "details": "See {IERC721Metadata-tokenURI}."
      },
      "transferFrom(address,address,uint256)": {
        "details": "See {IERC721-transferFrom}."
      },
      "transferOwnership(address)": {
        "details": "Transfers ownership of the contract to a new account (`newOwner`). Can only be called by the current owner."
      }
    },
    "version": 1
  },
  "userdoc": {
    "kind": "user",
    "methods": {},
    "version": 1
  }
}