{
  "contractName": "SimpleStorage",
  "abi": [
    {
      "inputs": [
        {
          "internalType": "uint256",
          "name": "",
          "type": "uint256"
        }
      ],
      "name": "mapToString",
      "outputs": [
        {
          "internalType": "string",
          "name": "",
          "type": "string"
        }
      ],
      "stateMutability": "view",
      "type": "function",
      "constant": true
    },
    {
      "inputs": [],
      "name": "read",
      "outputs": [
        {
          "internalType": "uint256",
          "name": "",
          "type": "uint256"
        }
      ],
      "stateMutability": "view",
      "type": "function",
      "constant": true
    },
    {
      "inputs": [
        {
          "internalType": "uint256",
          "name": "newValue",
          "type": "uint256"
        }
      ],
      "name": "write",
      "outputs": [],
      "stateMutability": "nonpayable",
      "type": "function"
    }
  ],
  "bytecode": "0x608060405234801561001057600080fd5b50610447806100206000396000f3fe608060405234801561001057600080fd5b50600436106100415760003560e01c80632f048afa146100465780634e3933dc1461006257806357de26a414610092575b600080fd5b610060600480360381019061005b919061029f565b6100b0565b005b61007c6004803603810190610077919061029f565b610118565b6040516100899190610365565b60405180910390f35b61009a6101b8565b6040516100a79190610396565b60405180910390f35b6040518060400160405280600381526020017f4f6e6500000000000000000000000000000000000000000000000000000000008152506001600060018152602001908152602001600020908051906020019061010d9291906101c1565b508060008190555050565b60016020528060005260406000206000915090508054610137906103e0565b80601f0160208091040260200160405190810160405280929190818152602001828054610163906103e0565b80156101b05780601f10610185576101008083540402835291602001916101b0565b820191906000526020600020905b81548152906001019060200180831161019357829003601f168201915b505050505081565b60008054905090565b8280546101cd906103e0565b90600052602060002090601f0160209004810192826101ef5760008555610236565b82601f1061020857805160ff1916838001178555610236565b82800160010185558215610236579182015b8281111561023557825182559160200191906001019061021a565b5b5090506102439190610247565b5090565b5b80821115610260576000816000905550600101610248565b5090565b600080fd5b6000819050919050565b61027c81610269565b811461028757600080fd5b50565b60008135905061029981610273565b92915050565b6000602082840312156102b5576102b4610264565b5b60006102c38482850161028a565b91505092915050565b600081519050919050565b600082825260208201905092915050565b60005b838110156103065780820151818401526020810190506102eb565b83811115610315576000848401525b50505050565b6000601f19601f8301169050919050565b6000610337826102cc565b61034181856102d7565b93506103518185602086016102e8565b61035a8161031b565b840191505092915050565b6000602082019050818103600083015261037f818461032c565b905092915050565b61039081610269565b82525050565b60006020820190506103ab6000830184610387565b92915050565b7f4e487b7100000000000000000000000000000000000000000000000000000000600052602260045260246000fd5b600060028204905060018216806103f857607f821691505b60208210810361040b5761040a6103b1565b5b5091905056fea264697066735822122079d2df4becaa5d4d5ad299a0a034375e429b4831b1e5a7e89c6c7f8142257a8664736f6c634300080e0033",
  "immutableReferences": {},
  "source": "// SPDX-License-Identifier: MIT\npragma solidity >=0.4.22 <0.9.0;\n\ncontract SimpleStorage {\n  uint256 value;\n\n  mapping (uint => string) public mapToString;\n\n  function read() public view returns (uint256) {\n    return value;\n  }\n\n  function write(uint256 newValue) public {\n    mapToString[1] = \"One\";\n    value = newValue;\n  }\n}\n",
  "sourcePath": "/Users/ozshmuel/Desktop/Google Drive/CS/ / /blockchain/project/election/truffle/contracts/SimpleStorage.sol",
  "compiler": {
    "name": "solc",
    "version": "0.8.14+commit.80d49f37.Emscripten.clang"
  },
  "schemaVersion": "3.4.7",
  "updatedAt": "2022-06-29T17:28:34.381Z",
  "networkType": "ethereum",
  "devdoc": {
    "kind": "dev",
    "methods": {},
    "version": 1
  },
  "userdoc": {
    "kind": "user",
    "methods": {},
    "version": 1
  }
}