{
  "contractName": "VotingCard",
  "abi": [
    {
      "inputs": [],
      "stateMutability": "nonpayable",
      "type": "constructor"
    },
    {
      "anonymous": false,
      "inputs": [
        {
          "indexed": true,
          "internalType": "address",
          "name": "owner",
          "type": "address"
        },
        {
          "indexed": true,
          "internalType": "address",
          "name": "approved",
          "type": "address"
        },
        {
          "indexed": true,
          "internalType": "uint256",
          "name": "tokenId",
          "type": "uint256"
        }
      ],
      "name": "Approval",
      "type": "event"
    },
    {
      "anonymous": false,
      "inputs": [
        {
          "indexed": true,
          "internalType": "address",
          "name": "owner",
          "type": "address"
        },
        {
          "indexed": true,
          "internalType": "address",
          "name": "operator",
          "type": "address"
        },
        {
          "indexed": false,
          "internalType": "bool",
          "name": "approved",
          "type": "bool"
        }
      ],
      "name": "ApprovalForAll",
      "type": "event"
    },
    {
      "anonymous": false,
      "inputs": [
        {
          "indexed": true,
          "internalType": "address",
          "name": "previousOwner",
          "type": "address"
        },
        {
          "indexed": true,
          "internalType": "address",
          "name": "newOwner",
          "type": "address"
        }
      ],
      "name": "OwnershipTransferred",
      "type": "event"
    },
    {
      "anonymous": false,
      "inputs": [
        {
          "indexed": true,
          "internalType": "address",
          "name": "from",
          "type": "address"
        },
        {
          "indexed": true,
          "internalType": "address",
          "name": "to",
          "type": "address"
        },
        {
          "indexed": true,
          "internalType": "uint256",
          "name": "tokenId",
          "type": "uint256"
        }
      ],
      "name": "Transfer",
      "type": "event"
    },
    {
      "inputs": [
        {
          "internalType": "address",
          "name": "to",
          "type": "address"
        },
        {
          "internalType": "uint256",
          "name": "tokenId",
          "type": "uint256"
        }
      ],
      "name": "approve",
      "outputs": [],
      "stateMutability": "nonpayable",
      "type": "function"
    },
    {
      "inputs": [
        {
          "internalType": "address",
          "name": "owner",
          "type": "address"
        }
      ],
      "name": "balanceOf",
      "outputs": [
        {
          "internalType": "uint256",
          "name": "",
          "type": "uint256"
        }
      ],
      "stateMutability": "view",
      "type": "function",
      "constant": true
    },
    {
      "inputs": [
        {
          "internalType": "uint256",
          "name": "tokenId",
          "type": "uint256"
        }
      ],
      "name": "getApproved",
      "outputs": [
        {
          "internalType": "address",
          "name": "",
          "type": "address"
        }
      ],
      "stateMutability": "view",
      "type": "function",
      "constant": true
    },
    {
      "inputs": [
        {
          "internalType": "address",
          "name": "owner",
          "type": "address"
        },
        {
          "internalType": "address",
          "name": "operator",
          "type": "address"
        }
      ],
      "name": "isApprovedForAll",
      "outputs": [
        {
          "internalType": "bool",
          "name": "",
          "type": "bool"
        }
      ],
      "stateMutability": "view",
      "type": "function",
      "constant": true
    },
    {
      "inputs": [
        {
          "internalType": "address",
          "name": "",
          "type": "address"
        }
      ],
      "name": "mintedWallets",
      "outputs": [
        {
          "internalType": "uint256",
          "name": "",
          "type": "uint256"
        }
      ],
      "stateMutability": "view",
      "type": "function",
      "constant": true
    },
    {
      "inputs": [],
      "name": "name",
      "outputs": [
        {
          "internalType": "string",
          "name": "",
          "type": "string"
        }
      ],
      "stateMutability": "view",
      "type": "function",
      "constant": true
    },
    {
      "inputs": [],
      "name": "owner",
      "outputs": [
        {
          "internalType": "address",
          "name": "",
          "type": "address"
        }
      ],
      "stateMutability": "view",
      "type": "function",
      "constant": true
    },
    {
      "inputs": [
        {
          "internalType": "uint256",
          "name": "tokenId",
          "type": "uint256"
        }
      ],
      "name": "ownerOf",
      "outputs": [
        {
          "internalType": "address",
          "name": "",
          "type": "address"
        }
      ],
      "stateMutability": "view",
      "type": "function",
      "constant": true
    },
    {
      "inputs": [],
      "name": "renounceOwnership",
      "outputs": [],
      "stateMutability": "nonpayable",
      "type": "function"
    },
    {
      "inputs": [
        {
          "internalType": "address",
          "name": "from",
          "type": "address"
        },
        {
          "internalType": "address",
          "name": "to",
          "type": "address"
        },
        {
          "internalType": "uint256",
          "name": "tokenId",
          "type": "uint256"
        }
      ],
      "name": "safeTransferFrom",
      "outputs": [],
      "stateMutability": "nonpayable",
      "type": "function"
    },
    {
      "inputs": [
        {
          "internalType": "address",
          "name": "from",
          "type": "address"
        },
        {
          "internalType": "address",
          "name": "to",
          "type": "address"
        },
        {
          "internalType": "uint256",
          "name": "tokenId",
          "type": "uint256"
        },
        {
          "internalType": "bytes",
          "name": "_data",
          "type": "bytes"
        }
      ],
      "name": "safeTransferFrom",
      "outputs": [],
      "stateMutability": "nonpayable",
      "type": "function"
    },
    {
      "inputs": [
        {
          "internalType": "address",
          "name": "operator",
          "type": "address"
        },
        {
          "internalType": "bool",
          "name": "approved",
          "type": "bool"
        }
      ],
      "name": "setApprovalForAll",
      "outputs": [],
      "stateMutability": "nonpayable",
      "type": "function"
    },
    {
      "inputs": [
        {
          "internalType": "bytes4",
          "name": "interfaceId",
          "type": "bytes4"
        }
      ],
      "name": "supportsInterface",
      "outputs": [
        {
          "internalType": "bool",
          "name": "",
          "type": "bool"
        }
      ],
      "stateMutability": "view",
      "type": "function",
      "constant": true
    },
    {
      "inputs": [],
      "name": "symbol",
      "outputs": [
        {
          "internalType": "string",
          "name": "",
          "type": "string"
        }
      ],
      "stateMutability": "view",
      "type": "function",
      "constant": true
    },
    {
      "inputs": [
        {
          "internalType": "uint256",
          "name": "tokenId",
          "type": "uint256"
        }
      ],
      "name": "tokenURI",
      "outputs": [
        {
          "internalType": "string",
          "name": "",
          "type": "string"
        }
      ],
      "stateMutability": "view",
      "type": "function",
      "constant": true
    },
    {
      "inputs": [
        {
          "internalType": "address",
          "name": "from",
          "type": "address"
        },
        {
          "internalType": "address",
          "name": "to",
          "type": "address"
        },
        {
          "internalType": "uint256",
          "name": "tokenId",
          "type": "uint256"
        }
      ],
      "name": "transferFrom",
      "outputs": [],
      "stateMutability": "nonpayable",
      "type": "function"
    },
    {
      "inputs": [
        {
          "internalType": "address",
          "name": "newOwner",
          "type": "address"
        }
      ],
      "name": "transferOwnership",
      "outputs": [],
      "stateMutability": "nonpayable",
      "type": "function"
    },
    {
      "inputs": [
        {
          "internalType": "address",
          "name": "to",
          "type": "address"
        }
      ],
      "name": "mintVotingCard",
      "outputs": [],
      "stateMutability": "nonpayable",
      "type": "function"
    },
    {
      "inputs": [
        {
          "internalType": "address",
          "name": "_address",
          "type": "address"
        }
      ],
      "name": "getTokenId",
      "outputs": [
        {
          "internalType": "uint256",
          "name": "",
          "type": "uint256"
        }
      ],
      "stateMutability": "view",
      "type": "function",
      "constant": true
    }
  ],
  "bytecode": "0x608060405260016007553480156200001657600080fd5b506040518060400160405280600b81526020017f566f74696e6720436172640000000000000000000000000000000000000000008152506040518060400160405280600381526020017f5654430000000000000000000000000000000000000000000000000000000000815250620000a3620000976200011e60201b60201c565b6200012660201b60201c565b8160019080519060200190620000bb929190620001ea565b508060029080519060200190620000d4929190620001ea565b50505033600860006101000a81548173ffffffffffffffffffffffffffffffffffffffff021916908373ffffffffffffffffffffffffffffffffffffffff160217905550620002fe565b600033905090565b60008060009054906101000a900473ffffffffffffffffffffffffffffffffffffffff169050816000806101000a81548173ffffffffffffffffffffffffffffffffffffffff021916908373ffffffffffffffffffffffffffffffffffffffff1602179055508173ffffffffffffffffffffffffffffffffffffffff168173ffffffffffffffffffffffffffffffffffffffff167f8be0079c531659141344cd1fd0a4f28419497f9722a3daafe3b4186f6b6457e060405160405180910390a35050565b828054620001f890620002c9565b90600052602060002090601f0160209004810192826200021c576000855562000268565b82601f106200023757805160ff191683800117855562000268565b8280016001018555821562000268579182015b82811115620002675782518255916020019190600101906200024a565b5b5090506200027791906200027b565b5090565b5b80821115620002965760008160009055506001016200027c565b5090565b7f4e487b7100000000000000000000000000000000000000000000000000000000600052602260045260246000fd5b60006002820490506001821680620002e257607f821691505b602082108103620002f857620002f76200029a565b5b50919050565b612ce5806200030e6000396000f3fe608060405234801561001057600080fd5b50600436106101215760003560e01c8063715018a6116100ad578063b88d4fde11610071578063b88d4fde14610306578063c87b56dd14610322578063e985e9c514610352578063f153768614610382578063f2fde38b146103b257610121565b8063715018a6146102745780638da5cb5b1461027e57806395d89b411461029c578063a22cb465146102ba578063ada7c4ed146102d657610121565b80630e2aba3c116100f45780630e2aba3c146101c057806323b872dd146101dc57806342842e0e146101f85780636352211e1461021457806370a082311461024457610121565b806301ffc9a71461012657806306fdde0314610156578063081812fc14610174578063095ea7b3146101a4575b600080fd5b610140600480360381019061013b9190611ada565b6103ce565b60405161014d9190611b22565b60405180910390f35b61015e6104b0565b60405161016b9190611bd6565b60405180910390f35b61018e60048036038101906101899190611c2e565b610542565b60405161019b9190611c9c565b60405180910390f35b6101be60048036038101906101b99190611ce3565b6105c7565b005b6101da60048036038101906101d59190611d23565b6106de565b005b6101f660048036038101906101f19190611d50565b6107cd565b005b610212600480360381019061020d9190611d50565b61082d565b005b61022e60048036038101906102299190611c2e565b61084d565b60405161023b9190611c9c565b60405180910390f35b61025e60048036038101906102599190611d23565b6108fe565b60405161026b9190611db2565b60405180910390f35b61027c6109b5565b005b610286610a3d565b6040516102939190611c9c565b60405180910390f35b6102a4610a66565b6040516102b19190611bd6565b60405180910390f35b6102d460048036038101906102cf9190611df9565b610af8565b005b6102f060048036038101906102eb9190611d23565b610b0e565b6040516102fd9190611db2565b60405180910390f35b610320600480360381019061031b9190611f6e565b610b26565b005b61033c60048036038101906103379190611c2e565b610b88565b6040516103499190611bd6565b60405180910390f35b61036c60048036038101906103679190611ff1565b610c2f565b6040516103799190611b22565b60405180910390f35b61039c60048036038101906103979190611d23565b610cc3565b6040516103a99190611db2565b60405180910390f35b6103cc60048036038101906103c79190611d23565b610d0c565b005b60007f80ac58cd000000000000000000000000000000000000000000000000000000007bffffffffffffffffffffffffffffffffffffffffffffffffffffffff1916827bffffffffffffffffffffffffffffffffffffffffffffffffffffffff1916148061049957507f5b5e139f000000000000000000000000000000000000000000000000000000007bffffffffffffffffffffffffffffffffffffffffffffffffffffffff1916827bffffffffffffffffffffffffffffffffffffffffffffffffffffffff1916145b806104a957506104a882610e03565b5b9050919050565b6060600180546104bf90612060565b80601f01602080910402602001604051908101604052809291908181526020018280546104eb90612060565b80156105385780601f1061050d57610100808354040283529160200191610538565b820191906000526020600020905b81548152906001019060200180831161051b57829003601f168201915b5050505050905090565b600061054d82610e6d565b61058c576040517f08c379a000000000000000000000000000000000000000000000000000000000815260040161058390612103565b60405180910390fd5b6005600083815260200190815260200160002060009054906101000a900473ffffffffffffffffffffffffffffffffffffffff169050919050565b60006105d28261084d565b90508073ffffffffffffffffffffffffffffffffffffffff168373ffffffffffffffffffffffffffffffffffffffff1603610642576040517f08c379a000000000000000000000000000000000000000000000000000000000815260040161063990612195565b60405180910390fd5b8073ffffffffffffffffffffffffffffffffffffffff16610661610ed9565b73ffffffffffffffffffffffffffffffffffffffff161480610690575061068f8161068a610ed9565b610c2f565b5b6106cf576040517f08c379a00000000000000000000000000000000000000000000000000000000081526004016106c690612227565b60405180910390fd5b6106d98383610ee1565b505050565b6000600960008373ffffffffffffffffffffffffffffffffffffffff1673ffffffffffffffffffffffffffffffffffffffff1681526020019081526020016000205414610760576040517f08c379a0000000000000000000000000000000000000000000000000000000008152600401610757906122b9565b60405180910390fd5b61076c81600754610f9a565b600754600960008373ffffffffffffffffffffffffffffffffffffffff1673ffffffffffffffffffffffffffffffffffffffff16815260200190815260200160002081905550600760008154809291906107c590612308565b919050555050565b6107de6107d8610ed9565b82611173565b61081d576040517f08c379a0000000000000000000000000000000000000000000000000000000008152600401610814906123c2565b60405180910390fd5b610828838383611251565b505050565b61084883838360405180602001604052806000815250610b26565b505050565b6000806003600084815260200190815260200160002060009054906101000a900473ffffffffffffffffffffffffffffffffffffffff169050600073ffffffffffffffffffffffffffffffffffffffff168173ffffffffffffffffffffffffffffffffffffffff16036108f5576040517f08c379a00000000000000000000000000000000000000000000000000000000081526004016108ec90612454565b60405180910390fd5b80915050919050565b60008073ffffffffffffffffffffffffffffffffffffffff168273ffffffffffffffffffffffffffffffffffffffff160361096e576040517f08c379a0000000000000000000000000000000000000000000000000000000008152600401610965906124e6565b60405180910390fd5b600460008373ffffffffffffffffffffffffffffffffffffffff1673ffffffffffffffffffffffffffffffffffffffff168152602001908152602001600020549050919050565b6109bd610ed9565b73ffffffffffffffffffffffffffffffffffffffff166109db610a3d565b73ffffffffffffffffffffffffffffffffffffffff1614610a31576040517f08c379a0000000000000000000000000000000000000000000000000000000008152600401610a2890612552565b60405180910390fd5b610a3b60006114b7565b565b60008060009054906101000a900473ffffffffffffffffffffffffffffffffffffffff16905090565b606060028054610a7590612060565b80601f0160208091040260200160405190810160405280929190818152602001828054610aa190612060565b8015610aee5780601f10610ac357610100808354040283529160200191610aee565b820191906000526020600020905b815481529060010190602001808311610ad157829003601f168201915b5050505050905090565b610b0a610b03610ed9565b838361157b565b5050565b60096020528060005260406000206000915090505481565b610b37610b31610ed9565b83611173565b610b76576040517f08c379a0000000000000000000000000000000000000000000000000000000008152600401610b6d906123c2565b60405180910390fd5b610b82848484846116e7565b50505050565b6060610b9382610e6d565b610bd2576040517f08c379a0000000000000000000000000000000000000000000000000000000008152600401610bc9906125e4565b60405180910390fd5b6000610bdc611743565b90506000815111610bfc5760405180602001604052806000815250610c27565b80610c068461175a565b604051602001610c17929190612640565b6040516020818303038152906040525b915050919050565b6000600660008473ffffffffffffffffffffffffffffffffffffffff1673ffffffffffffffffffffffffffffffffffffffff16815260200190815260200160002060008373ffffffffffffffffffffffffffffffffffffffff1673ffffffffffffffffffffffffffffffffffffffff16815260200190815260200160002060009054906101000a900460ff16905092915050565b6000600960008373ffffffffffffffffffffffffffffffffffffffff1673ffffffffffffffffffffffffffffffffffffffff168152602001908152602001600020549050919050565b610d14610ed9565b73ffffffffffffffffffffffffffffffffffffffff16610d32610a3d565b73ffffffffffffffffffffffffffffffffffffffff1614610d88576040517f08c379a0000000000000000000000000000000000000000000000000000000008152600401610d7f90612552565b60405180910390fd5b600073ffffffffffffffffffffffffffffffffffffffff168173ffffffffffffffffffffffffffffffffffffffff1603610df7576040517f08c379a0000000000000000000000000000000000000000000000000000000008152600401610dee906126d6565b60405180910390fd5b610e00816114b7565b50565b60007f01ffc9a7000000000000000000000000000000000000000000000000000000007bffffffffffffffffffffffffffffffffffffffffffffffffffffffff1916827bffffffffffffffffffffffffffffffffffffffffffffffffffffffff1916149050919050565b60008073ffffffffffffffffffffffffffffffffffffffff166003600084815260200190815260200160002060009054906101000a900473ffffffffffffffffffffffffffffffffffffffff1673ffffffffffffffffffffffffffffffffffffffff1614159050919050565b600033905090565b816005600083815260200190815260200160002060006101000a81548173ffffffffffffffffffffffffffffffffffffffff021916908373ffffffffffffffffffffffffffffffffffffffff160217905550808273ffffffffffffffffffffffffffffffffffffffff16610f548361084d565b73ffffffffffffffffffffffffffffffffffffffff167f8c5be1e5ebec7d5bd14f71427d1e84f3dd0314c0f7b2291e5b200ac8c7c3b92560405160405180910390a45050565b600073ffffffffffffffffffffffffffffffffffffffff168273ffffffffffffffffffffffffffffffffffffffff1603611009576040517f08c379a000000000000000000000000000000000000000000000000000000000815260040161100090612742565b60405180910390fd5b61101281610e6d565b15611052576040517f08c379a0000000000000000000000000000000000000000000000000000000008152600401611049906127ae565b60405180910390fd5b61105e600083836118ba565b6001600460008473ffffffffffffffffffffffffffffffffffffffff1673ffffffffffffffffffffffffffffffffffffffff16815260200190815260200160002060008282546110ae91906127ce565b92505081905550816003600083815260200190815260200160002060006101000a81548173ffffffffffffffffffffffffffffffffffffffff021916908373ffffffffffffffffffffffffffffffffffffffff160217905550808273ffffffffffffffffffffffffffffffffffffffff16600073ffffffffffffffffffffffffffffffffffffffff167fddf252ad1be2c89b69c2b068fc378daa952ba7f163c4a11628f55a4df523b3ef60405160405180910390a461116f600083836118bf565b5050565b600061117e82610e6d565b6111bd576040517f08c379a00000000000000000000000000000000000000000000000000000000081526004016111b490612896565b60405180910390fd5b60006111c88361084d565b90508073ffffffffffffffffffffffffffffffffffffffff168473ffffffffffffffffffffffffffffffffffffffff16148061120a57506112098185610c2f565b5b8061124857508373ffffffffffffffffffffffffffffffffffffffff1661123084610542565b73ffffffffffffffffffffffffffffffffffffffff16145b91505092915050565b8273ffffffffffffffffffffffffffffffffffffffff166112718261084d565b73ffffffffffffffffffffffffffffffffffffffff16146112c7576040517f08c379a00000000000000000000000000000000000000000000000000000000081526004016112be90612928565b60405180910390fd5b600073ffffffffffffffffffffffffffffffffffffffff168273ffffffffffffffffffffffffffffffffffffffff1603611336576040517f08c379a000000000000000000000000000000000000000000000000000000000815260040161132d906129ba565b60405180910390fd5b6113418383836118ba565b61134c600082610ee1565b6001600460008573ffffffffffffffffffffffffffffffffffffffff1673ffffffffffffffffffffffffffffffffffffffff168152602001908152602001600020600082825461139c91906129da565b925050819055506001600460008473ffffffffffffffffffffffffffffffffffffffff1673ffffffffffffffffffffffffffffffffffffffff16815260200190815260200160002060008282546113f391906127ce565b92505081905550816003600083815260200190815260200160002060006101000a81548173ffffffffffffffffffffffffffffffffffffffff021916908373ffffffffffffffffffffffffffffffffffffffff160217905550808273ffffffffffffffffffffffffffffffffffffffff168473ffffffffffffffffffffffffffffffffffffffff167fddf252ad1be2c89b69c2b068fc378daa952ba7f163c4a11628f55a4df523b3ef60405160405180910390a46114b28383836118bf565b505050565b60008060009054906101000a900473ffffffffffffffffffffffffffffffffffffffff169050816000806101000a81548173ffffffffffffffffffffffffffffffffffffffff021916908373ffffffffffffffffffffffffffffffffffffffff1602179055508173ffffffffffffffffffffffffffffffffffffffff168173ffffffffffffffffffffffffffffffffffffffff167f8be0079c531659141344cd1fd0a4f28419497f9722a3daafe3b4186f6b6457e060405160405180910390a35050565b8173ffffffffffffffffffffffffffffffffffffffff168373ffffffffffffffffffffffffffffffffffffffff16036115e9576040517f08c379a00000000000000000000000000000000000000000000000000000000081526004016115e090612a5a565b60405180910390fd5b80600660008573ffffffffffffffffffffffffffffffffffffffff1673ffffffffffffffffffffffffffffffffffffffff16815260200190815260200160002060008473ffffffffffffffffffffffffffffffffffffffff1673ffffffffffffffffffffffffffffffffffffffff16815260200190815260200160002060006101000a81548160ff0219169083151502179055508173ffffffffffffffffffffffffffffffffffffffff168373ffffffffffffffffffffffffffffffffffffffff167f17307eab39ab6107e8899845ad3d59bd9653f200f220920489ca2b5937696c31836040516116da9190611b22565b60405180910390a3505050565b6116f2848484611251565b6116fe848484846118c4565b61173d576040517f08c379a000000000000000000000000000000000000000000000000000000000815260040161173490612aec565b60405180910390fd5b50505050565b606060405180602001604052806000815250905090565b6060600082036117a1576040518060400160405280600181526020017f300000000000000000000000000000000000000000000000000000000000000081525090506118b5565b600082905060005b600082146117d35780806117bc90612308565b915050600a826117cc9190612b3b565b91506117a9565b60008167ffffffffffffffff8111156117ef576117ee611e43565b5b6040519080825280601f01601f1916602001820160405280156118215781602001600182028036833780820191505090505b5090505b600085146118ae5760018261183a91906129da565b9150600a856118499190612b6c565b603061185591906127ce565b60f81b81838151811061186b5761186a612b9d565b5b60200101907effffffffffffffffffffffffffffffffffffffffffffffffffffffffffffff1916908160001a905350600a856118a79190612b3b565b9450611825565b8093505050505b919050565b505050565b505050565b60006118e58473ffffffffffffffffffffffffffffffffffffffff16611a4b565b15611a3e578373ffffffffffffffffffffffffffffffffffffffff1663150b7a0261190e610ed9565b8786866040518563ffffffff1660e01b81526004016119309493929190612c21565b6020604051808303816000875af192505050801561196c57506040513d601f19601f820116820180604052508101906119699190612c82565b60015b6119ee573d806000811461199c576040519150601f19603f3d011682016040523d82523d6000602084013e6119a1565b606091505b5060008151036119e6576040517f08c379a00000000000000000000000000000000000000000000000000000000081526004016119dd90612aec565b60405180910390fd5b805181602001fd5b63150b7a0260e01b7bffffffffffffffffffffffffffffffffffffffffffffffffffffffff1916817bffffffffffffffffffffffffffffffffffffffffffffffffffffffff191614915050611a43565b600190505b949350505050565b6000808273ffffffffffffffffffffffffffffffffffffffff163b119050919050565b6000604051905090565b600080fd5b600080fd5b60007fffffffff0000000000000000000000000000000000000000000000000000000082169050919050565b611ab781611a82565b8114611ac257600080fd5b50565b600081359050611ad481611aae565b92915050565b600060208284031215611af057611aef611a78565b5b6000611afe84828501611ac5565b91505092915050565b60008115159050919050565b611b1c81611b07565b82525050565b6000602082019050611b376000830184611b13565b92915050565b600081519050919050565b600082825260208201905092915050565b60005b83811015611b77578082015181840152602081019050611b5c565b83811115611b86576000848401525b50505050565b6000601f19601f8301169050919050565b6000611ba882611b3d565b611bb28185611b48565b9350611bc2818560208601611b59565b611bcb81611b8c565b840191505092915050565b60006020820190508181036000830152611bf08184611b9d565b905092915050565b6000819050919050565b611c0b81611bf8565b8114611c1657600080fd5b50565b600081359050611c2881611c02565b92915050565b600060208284031215611c4457611c43611a78565b5b6000611c5284828501611c19565b91505092915050565b600073ffffffffffffffffffffffffffffffffffffffff82169050919050565b6000611c8682611c5b565b9050919050565b611c9681611c7b565b82525050565b6000602082019050611cb16000830184611c8d565b92915050565b611cc081611c7b565b8114611ccb57600080fd5b50565b600081359050611cdd81611cb7565b92915050565b60008060408385031215611cfa57611cf9611a78565b5b6000611d0885828601611cce565b9250506020611d1985828601611c19565b9150509250929050565b600060208284031215611d3957611d38611a78565b5b6000611d4784828501611cce565b91505092915050565b600080600060608486031215611d6957611d68611a78565b5b6000611d7786828701611cce565b9350506020611d8886828701611cce565b9250506040611d9986828701611c19565b9150509250925092565b611dac81611bf8565b82525050565b6000602082019050611dc76000830184611da3565b92915050565b611dd681611b07565b8114611de157600080fd5b50565b600081359050611df381611dcd565b92915050565b60008060408385031215611e1057611e0f611a78565b5b6000611e1e85828601611cce565b9250506020611e2f85828601611de4565b9150509250929050565b600080fd5b600080fd5b7f4e487b7100000000000000000000000000000000000000000000000000000000600052604160045260246000fd5b611e7b82611b8c565b810181811067ffffffffffffffff82111715611e9a57611e99611e43565b5b80604052505050565b6000611ead611a6e565b9050611eb98282611e72565b919050565b600067ffffffffffffffff821115611ed957611ed8611e43565b5b611ee282611b8c565b9050602081019050919050565b82818337600083830152505050565b6000611f11611f0c84611ebe565b611ea3565b905082815260208101848484011115611f2d57611f2c611e3e565b5b611f38848285611eef565b509392505050565b600082601f830112611f5557611f54611e39565b5b8135611f65848260208601611efe565b91505092915050565b60008060008060808587031215611f8857611f87611a78565b5b6000611f9687828801611cce565b9450506020611fa787828801611cce565b9350506040611fb887828801611c19565b925050606085013567ffffffffffffffff811115611fd957611fd8611a7d565b5b611fe587828801611f40565b91505092959194509250565b6000806040838503121561200857612007611a78565b5b600061201685828601611cce565b925050602061202785828601611cce565b9150509250929050565b7f4e487b7100000000000000000000000000000000000000000000000000000000600052602260045260246000fd5b6000600282049050600182168061207857607f821691505b60208210810361208b5761208a612031565b5b50919050565b7f4552433732313a20617070726f76656420717565727920666f72206e6f6e657860008201527f697374656e7420746f6b656e0000000000000000000000000000000000000000602082015250565b60006120ed602c83611b48565b91506120f882612091565b604082019050919050565b6000602082019050818103600083015261211c816120e0565b9050919050565b7f4552433732313a20617070726f76616c20746f2063757272656e74206f776e6560008201527f7200000000000000000000000000000000000000000000000000000000000000602082015250565b600061217f602183611b48565b915061218a82612123565b604082019050919050565b600060208201905081810360008301526121ae81612172565b9050919050565b7f4552433732313a20617070726f76652063616c6c6572206973206e6f74206f7760008201527f6e6572206e6f7220617070726f76656420666f7220616c6c0000000000000000602082015250565b6000612211603883611b48565b915061221c826121b5565b604082019050919050565b6000602082019050818103600083015261224081612204565b9050919050565b7f45766572792077616c6c65742063616e206d696e74206f6e6520766f74696e6760008201527f2063617264000000000000000000000000000000000000000000000000000000602082015250565b60006122a3602583611b48565b91506122ae82612247565b604082019050919050565b600060208201905081810360008301526122d281612296565b9050919050565b7f4e487b7100000000000000000000000000000000000000000000000000000000600052601160045260246000fd5b600061231382611bf8565b91507fffffffffffffffffffffffffffffffffffffffffffffffffffffffffffffffff8203612345576123446122d9565b5b600182019050919050565b7f4552433732313a207472616e736665722063616c6c6572206973206e6f74206f60008201527f776e6572206e6f7220617070726f766564000000000000000000000000000000602082015250565b60006123ac603183611b48565b91506123b782612350565b604082019050919050565b600060208201905081810360008301526123db8161239f565b9050919050565b7f4552433732313a206f776e657220717565727920666f72206e6f6e657869737460008201527f656e7420746f6b656e0000000000000000000000000000000000000000000000602082015250565b600061243e602983611b48565b9150612449826123e2565b604082019050919050565b6000602082019050818103600083015261246d81612431565b9050919050565b7f4552433732313a2062616c616e636520717565727920666f7220746865207a6560008201527f726f206164647265737300000000000000000000000000000000000000000000602082015250565b60006124d0602a83611b48565b91506124db82612474565b604082019050919050565b600060208201905081810360008301526124ff816124c3565b9050919050565b7f4f776e61626c653a2063616c6c6572206973206e6f7420746865206f776e6572600082015250565b600061253c602083611b48565b915061254782612506565b602082019050919050565b6000602082019050818103600083015261256b8161252f565b9050919050565b7f4552433732314d657461646174613a2055524920717565727920666f72206e6f60008201527f6e6578697374656e7420746f6b656e0000000000000000000000000000000000602082015250565b60006125ce602f83611b48565b91506125d982612572565b604082019050919050565b600060208201905081810360008301526125fd816125c1565b9050919050565b600081905092915050565b600061261a82611b3d565b6126248185612604565b9350612634818560208601611b59565b80840191505092915050565b600061264c828561260f565b9150612658828461260f565b91508190509392505050565b7f4f776e61626c653a206e6577206f776e657220697320746865207a65726f206160008201527f6464726573730000000000000000000000000000000000000000000000000000602082015250565b60006126c0602683611b48565b91506126cb82612664565b604082019050919050565b600060208201905081810360008301526126ef816126b3565b9050919050565b7f4552433732313a206d696e7420746f20746865207a65726f2061646472657373600082015250565b600061272c602083611b48565b9150612737826126f6565b602082019050919050565b6000602082019050818103600083015261275b8161271f565b9050919050565b7f4552433732313a20746f6b656e20616c7265616479206d696e74656400000000600082015250565b6000612798601c83611b48565b91506127a382612762565b602082019050919050565b600060208201905081810360008301526127c78161278b565b9050919050565b60006127d982611bf8565b91506127e483611bf8565b9250827fffffffffffffffffffffffffffffffffffffffffffffffffffffffffffffffff03821115612819576128186122d9565b5b828201905092915050565b7f4552433732313a206f70657261746f7220717565727920666f72206e6f6e657860008201527f697374656e7420746f6b656e0000000000000000000000000000000000000000602082015250565b6000612880602c83611b48565b915061288b82612824565b604082019050919050565b600060208201905081810360008301526128af81612873565b9050919050565b7f4552433732313a207472616e736665722066726f6d20696e636f72726563742060008201527f6f776e6572000000000000000000000000000000000000000000000000000000602082015250565b6000612912602583611b48565b915061291d826128b6565b604082019050919050565b6000602082019050818103600083015261294181612905565b9050919050565b7f4552433732313a207472616e7366657220746f20746865207a65726f2061646460008201527f7265737300000000000000000000000000000000000000000000000000000000602082015250565b60006129a4602483611b48565b91506129af82612948565b604082019050919050565b600060208201905081810360008301526129d381612997565b9050919050565b60006129e582611bf8565b91506129f083611bf8565b925082821015612a0357612a026122d9565b5b828203905092915050565b7f4552433732313a20617070726f766520746f2063616c6c657200000000000000600082015250565b6000612a44601983611b48565b9150612a4f82612a0e565b602082019050919050565b60006020820190508181036000830152612a7381612a37565b9050919050565b7f4552433732313a207472616e7366657220746f206e6f6e20455243373231526560008201527f63656976657220696d706c656d656e7465720000000000000000000000000000602082015250565b6000612ad6603283611b48565b9150612ae182612a7a565b604082019050919050565b60006020820190508181036000830152612b0581612ac9565b9050919050565b7f4e487b7100000000000000000000000000000000000000000000000000000000600052601260045260246000fd5b6000612b4682611bf8565b9150612b5183611bf8565b925082612b6157612b60612b0c565b5b828204905092915050565b6000612b7782611bf8565b9150612b8283611bf8565b925082612b9257612b91612b0c565b5b828206905092915050565b7f4e487b7100000000000000000000000000000000000000000000000000000000600052603260045260246000fd5b600081519050919050565b600082825260208201905092915050565b6000612bf382612bcc565b612bfd8185612bd7565b9350612c0d818560208601611b59565b612c1681611b8c565b840191505092915050565b6000608082019050612c366000830187611c8d565b612c436020830186611c8d565b612c506040830185611da3565b8181036060830152612c628184612be8565b905095945050505050565b600081519050612c7c81611aae565b92915050565b600060208284031215612c9857612c97611a78565b5b6000612ca684828501612c6d565b9150509291505056fea26469706673582212207c2b0ab7b39e43451bce74b6d3fad6bdce07e03c21a623d939d1ba87f40b25e464736f6c634300080e0033",
  "immutableReferences": {},
  "source": "// SPDX-License-Identifier: MIT\npragma solidity >=0.4.22 <=0.8.15;\n\nimport \"../node_modules/@openzeppelin/contracts/access/Ownable.sol\";\nimport \"../node_modules/@openzeppelin/contracts/token/ERC721/ERC721.sol\";\nimport \"../node_modules/@openzeppelin/contracts/token/ERC721/presets/ERC721PresetMinterPauserAutoId.sol\";\n\ncontract VotingCard is Ownable, ERC721 {\n\n    uint256 _tokenId = 1;\n    address admin;\n    // Mapping owners to tokenId. If voted, returns 0.\n    mapping (address => uint256) public mintedWallets;\n\n    constructor() ERC721('Voting Card', 'VTC') {\n        admin = msg.sender;\n    }\n\n    function mintVotingCard(address to) public{\n        require (mintedWallets[to] == 0, \"Every wallet can mint one voting card\");\n        _mint(to, _tokenId);\n        mintedWallets[to]= _tokenId;\n        _tokenId ++;\n    }\n\n    function burnVotingCard() internal {\n        require (mintedWallets[msg.sender] != 0, \"Wallet has no voting card or it already voted\");\n        _burn(mintedWallets[msg.sender]);\n    }\n\n    function getTokenId(address _address) public view returns(uint256) {\n        return mintedWallets[_address];\n    }\n\n}",
  "sourcePath": "/Users/ozshmuel/Desktop/Google Drive/CS/ / /blockchain/project/election/truffle/contracts/VotingCard.sol",
  "compiler": {
    "name": "solc",
    "version": "0.8.14+commit.80d49f37.Emscripten.clang"
  },
  "schemaVersion": "3.4.7",
  "updatedAt": "2022-07-04T21:09:56.643Z",
  "networkType": "ethereum",
  "devdoc": {
    "kind": "dev",
    "methods": {
      "approve(address,uint256)": {
        "details": "See {IERC721-approve}."
      },
      "balanceOf(address)": {
        "details": "See {IERC721-balanceOf}."
      },
      "getApproved(uint256)": {
        "details": "See {IERC721-getApproved}."
      },
      "isApprovedForAll(address,address)": {
        "details": "See {IERC721-isApprovedForAll}."
      },
      "name()": {
        "details": "See {IERC721Metadata-name}."
      },
      "owner()": {
        "details": "Returns the address of the current owner."
      },
      "ownerOf(uint256)": {
        "details": "See {IERC721-ownerOf}."
      },
      "renounceOwnership()": {
        "details": "Leaves the contract without owner. It will not be possible to call `onlyOwner` functions anymore. Can only be called by the current owner. NOTE: Renouncing ownership will leave the contract without an owner, thereby removing any functionality that is only available to the owner."
      },
      "safeTransferFrom(address,address,uint256)": {
        "details": "See {IERC721-safeTransferFrom}."
      },
      "safeTransferFrom(address,address,uint256,bytes)": {
        "details": "See {IERC721-safeTransferFrom}."
      },
      "setApprovalForAll(address,bool)": {
        "details": "See {IERC721-setApprovalForAll}."
      },
      "supportsInterface(bytes4)": {
        "details": "See {IERC165-supportsInterface}."
      },
      "symbol()": {
        "details": "See {IERC721Metadata-symbol}."
      },
      "tokenURI(uint256)": {
        "details": "See {IERC721Metadata-tokenURI}."
      },
      "transferFrom(address,address,uint256)": {
        "details": "See {IERC721-transferFrom}."
      },
      "transferOwnership(address)": {
        "details": "Transfers ownership of the contract to a new account (`newOwner`). Can only be called by the current owner."
      }
    },
    "version": 1
  },
  "userdoc": {
    "kind": "user",
    "methods": {},
    "version": 1
  }
}